:20000000004000206DA8000001C9011001C9011001C9011001C9011001C9011001C9011049
:1C00200001C9011001C9011001C9011001C9011001C9011001C901103FC9011089
:20003C002DE9F84FDFF82485DFF82415DFF8246588F80000002008600821DFF81C050170BD
:20005C000D21418040F221318180DFF810050660B77EDFF80C050770FF2FF17E417008BF15
:20007C00FF29327F8270737FC370B57F0571F67F467115D1FF2A08BFFF2B11D1FF2D08BFC9
:20009C00FF2E0DD1DFF8DC140A7802704A7842708A788270CA78C2700A7902714979417138
:2000BC00DFF8C41402780A70FF2542784A7082788A70C278CA7002790A714079DFF8AC242B
:2000DC004871DFF8AC14DFF8AC04057045708570C5700571457100200880DFF89C144E6BC5
:2000FC00DFF898147078087031781170B078DFF890140870B1680879DFF88814421E0A70D5
:20011C00F078DFF884140870F068DFF88014086008B90CF0FDF93069DFF87444206008B92D
:20013C000CF0F6F92068DFF86C7401688847216851F8042F38469047DFF85C04DFF85C1469
:20015C003862DFF85C0478627069086008B90CF0DFF9B069DFF84C14086008B90CF0D8F9BC
:20017C00F069DFF84414086008B90CF0D1F9DFF83CB4DFF83C649BF804000CF0DBFC3060B4
:20019C0008B900F045B99BF80500DFF828740CF0D1FC386008B9306837E19BF80600DFF847
:2001BC0018440CF0C7FC206020B930680CF0D2FC38682AE19BF80700DFF800940CF0BAFCEB
:2001DC00C9F8000038B930680CF0C4FC38680CF0C1FC206819E1DFF894130A789BF800008F
:2001FC00DFF8DCA3921C504380B20CF0A3FCCAF8080058B930680CF0ADFC38680CF0AAFC25
:20021C0020680CF0A7FCD9F80000FEE0D7480078002800F00281BBF80210DFF8A8B3484338
:20023C0080B20CF087FCCBF8040078B930680CF091FC38680CF08EFC20680CF08BFCD9F8D6
:20025C0000000CF087FCDAF80800DEE0C74800780CF070FCDC49086080B930680CF07AFCAC
:20027C0038680CF077FCD9F800000CF073FCDAF808000CF06FFCDBF80400C6E0BB480078DE
:20029C00182148430CF056FCD04A1060B0B930680CF060FC38680CF05DFC20680CF05AFC7E
:2002BC00D9F800000CF056FCDAF808000CF052FCDBF804000CF04EFCC348A5E0AB480078C7
:2002DC0040010CF037FCC2490860D8B930680CF041FC38680CF03EFC20680CF03BFCD9F85B
:2002FC0000000CF037FCDAF808000CF033FCDBF804000CF02FFCB44800680CF02BFCB3492D
:20031C00086882E09948007800010CF013FCB1490860F0B930680CF01DFC38680CF01AFC20
:20033C0020680CF017FCD9F800000CF013FCDAF808000CF00FFCDBF804000CF00BFCA24889
:20035C0000680CF007FCA14908680CF003FCA0485AE08648007800010CF0ECFB9E4908602A
:20037C0018BB30680CF0F6FB38680CF0F3FB20680CF0F0FBD9F800000CF0ECFBDAF8080082
:20039C000CF0E8FBDBF804000CF0E4FB8E4800680CF0E0FB8D4908680CF0DCFB8C48006846
:2003BC000CF0D8FB8B4908682FE070480078302148430CF0BFFB894A106070BB30680CF03B
:2003DC00C9FB38680CF0C6FB20680CF0C3FBD9F800000CF0BFFBDAF808000CF0BBFBDBF8B8
:2003FC0004000CF0B7FB784800680CF0B3FB774908680CF0AFFB764800680CF0ABFB754901
:20041C0008680CF0A7FB744800680CF0A3FB00200CF07EF84FF4804191E0316801200871BA
:20043C003068057331684D73306885733168CD7330680574002031684D743268D072A022A5
:20045C003168487103213068C28001720720316848720020326890722821306841820121C1
:20047C00C176002031684877326882F85E0001203168087732684B4E82F85D0039680871E2
:20049C003868057339684D73386885733968CD7338680574002039684D743A68D07239682E
:2004BC0048713A6890724FF4207039680022C88008818A7401213A68D17421680D732268C2
:2004DC00557321688D732268D57321680D740021226855742368D97201212268117100213A
:2004FC00236859712168C8800881002088722168887405202268D07439480168884731684D
:20051C00054608688047326852F8041F0020884719481D4BC16818780A88324902430A80E9
:20053C00284631490A6890470C21304800F060F8104800F061F800F063F84FF4005198F871
:20055C000000BDE8F44F06F041BE00BF6E4F0020044F0020B63F0050604E0020084F002009
:20057C002C4E0020E81200503C4E00207B4F00200C4F0020344E0020D8E300006D4F002033
:20059C006B4F0020724F00206C4F0020F04E0020F44E00207C4B002051CB0000F84E002080
:2005BC0071CB0000FC4E0020881D002034140020104F0020144F0020184F00201C4F002038
:2005DC00641D0020684E0020004F0020804E0020844E0020884E00208C4E0020904E00204B
:2005FC00E00E0020544F0020E40E0020F84D0020DFF800F0E5710110DFF800F01D6E011006
:20061C00DFF800F04D7101102DE9F04FD44C04F118012046ADF1340D09F0A0FE00264FF65E
:20063C00FF7066700121208204F1A4000AF0E2FE022104F1C8000AF0DDFE042104F1EC0067
:20065C000AF0D8FE4FF0040A04F1440810224046314684F802A008F0C5FB04F15409102297
:20067C004846314608F0BEFB04F11C073E6004F10A052E70E671267207206072CDF8008023
:20069C00DFF8F882022210200346414604F03EFC102003224146CDF80090034604F036FCFB
:2006BC001020524641460097134604F02FFC4FF0080B4FF0030905F12A00079005F17900FD
:2006DC00089005F11E00099005F15A000A9024350B9517E06078A28FE18FB4F84050B4F87E
:2006FC00423006280ED1ADF80A20ADF80C10ADF80E50B948ADF810300CF0B1FB012002A972
:20071C0008F02CF9A069B34A31464FF0FF3300F029FA071CF6D0059606A80DF11A0105AAA5
:20073C000AF038FF002840F0BD81BDF818102078102940F0B3819DF81A10884240F0AE81DC
:20075C00059D29884FF6FF728A4200F09C812B78A23B00F07F812E3B40F0A081A978B0465A
:20077C00002900F03B81891E00F00A81491E012940F2D980891E00F09C80491E6FD0491E8A
:20079C005CD0083900F05681891E40F0598194F83A30A888052BADF8080047D001208DF898
:2007BC0012008D480CF05BFB94F83A0001281ED004281CD003280DD002280BD00598C188FC
:2007DC00ADF80A100189ADF80C104189ADF80E10818927E0A08FE58FADF80A00B4F84030E7
:2007FC00ADF80C50B4F84210ADF80E301AE0A08FE9888842D8BF081CADF80A002989E08F0C
:20081C008842D8BF081CADF80C006989B4F840008842D8BF081CADF80E00A989B4F8420050
:20083C00884200DC0846ADF8100001E08DF81260A849102002AA04F069FB01E1A6480CF02A
:20085C000EFB6B78002B40F0FB80E88860822889A0826889E08260480CF044F9F0E0AA885F
:20087C00B449102004F052FB07984146062208F0B9FA6682A682E682A879207356480CF02F
:20089C00EEFA95480CF0EBFA4FF001084FF6FF702379208253B9A879082812BF84F801A011
:2008BC000520607040460CF03DF9C9E084F80190C6E06B787BBB291D07980A680260898830
:2008DC0081800623637068892082E8896082288AA082688AE082E878E07294F83A00012850
:2008FC0018BF02280BD1994910201F2204F00EFB4FF47A7180B2414337480AF091FB6889D5
:20091C0000909149CDF804A0EA7810202D1D2B4604F0FCFA97E06878312840F08880E67073
:20093C0084F801A08FE06B78002B40F08080A878E3896178032815D0E078257923B9012861
:20095C0014BF2671E67006E0054304D0804819460AF066FB61780729E2D10620607072E033
:20097C0028060020062907D0E578002D08BF84F8019068D00220F1E70720EFE783C3000034
:20099C006B78002B53D1EB78617893B902291DD007291BD0062902D12079012816D1032977
:2009BC0014D06B480CF09EF880B901200CF0BAF80CE00BF013F80246A079624900900898BC
:2009DC0043460190102004F0A1FA68706D78002D2DD135E007000080F00600206B7833BBB7
:2009FC005C485749009002221020034604F08EFA59484A46524900901020034604F086FAA5
:200A1C00ED1C099829680160A98801238180207863700AF0E3FF024601230A9D6079494903
:200A3C0000901020019504F071FAC0B258B184F801B008E0AA8841491020052304F066FAED
:200A5C00B8F1010F2AD1256A45B32D6835B36078A84723E06879132820D12889012808D138
:200A7C00607B022805D11C480CF0F9F90AF0ACFD14E036491020052204F048FA81B21648F9
:200A9C000AF0CEFA0AE06888C00B07D3334852462B4900901346102004F038FA059808B1DD
:200ABC000CF08CF92579E078790830D355EA00032DD0204600788DB9E179257A8DF8081026
:200ADC000B9A8DF8095013680DF10A052B609288AA8005E005160110140700208DF80890B7
:200AFC00617A8DF81010A17A8DF811100AF076FF1149024602AB102004F008FA38B1256A3D
:200B1C0084F801B01DB12D680DB15846A847B80803D31349304607F021FFF808FFF4F2ADCD
:200B3C00607B401E3FF4D6AD401E7FF4EBAD0AF04BFDE7E529A3000059440110C1170110D0
:200B5C00796200000945011059650000C5C60000CC0600206C0600207C0600204406002066
:200B7C0062060020DFF800F0F99B01102DE9F84FD84CA178FF2904BF00200BF0C9FCA078E8
:200B9C000BF0D8FE044604F1680504F190062968086810B10022E2830CE0A87B002804BFEE
:200BBC00A97E002906D13078002801BF217F0129608CE0832189E08B4118491C618120462E
:200BDC0000F09CF901281EBFC3480178012904D120890022401CE28360814FF6FF77A87E9D
:200BFC0001280DD1AA8B6189208900F08BF938B1218960894A1C93B298421BD0A88B0FE088
:200C1C003078012816D172886189208900F07AF980B1218960894A1C93B298420AD07088F5
:200C3C0092B2904206D03818608180B200F06EF93F18E78304F5967999F8040020B120891A
:200C5C000021401CE183608104F12E07A87E01283ED12289A88B521C92B2904238D16081E2
:200C7C0004F18601204600F055F9A88C6189608400202077E083E0894118A181A88B21895B
:200C9C0000F044F98046B988288C6A8C01FB0808E88C8A4204BF3989884202BFA98CFB8846
:200CBC00994207D000090090AB8CA1795208002000F034F9A87F3870688CB880A88CF8803E
:200CDC00E88C3881204600F02DF90220A87601E0B7F80480B4F81EC02268804ED2F80CE063
:200CFC000CF1010000FB08F340F6C41000FB03F18E44C2F80CE03668DFF8E4E13678BEF8D5
:200D1C000080784AB609032E11D1D67BF60748BF4FF000080BD408F101081FFA88F6012E60
:200D3C0012BF668AB9F8066006F2DC5600E0668A5E434FF4C87AB6FBFAF6761C6661AEF8FF
:200D5C000080A3614FF0180894F806A084F820C008FB0AFADFF890C1DCF800E023680EF199
:200D7C00080656F80A601E610EF1080694F806A008FB0AFACDF800A0D3F80CB0D4F814A060
:200D9C00ABEB0A0ADDF800B046F80BA094F806A008FB0AFA56F80A609E600EF10C06A37903
:200DBC0008FB03F30EF10C0EF65C06F0F00646F002060EF803604FF0000ADCF800E0A67904
:200DDC000EF1020308FB06F623F806A0474BA6791B68760103F1140AD4F814B05AF806A0EE
:200DFC000AEB4B0A03F1140B4BF806A0AD7E022D0CD1A5796D0103F1140697F800A07659C2
:200E1C0000FB0A6603F1140A4AF80560BD88D27BA779D60739D508FB07F70EF10806F2599C
:200E3C00A2F5A862F2510EF10807A27908FB02F2BA582768511A3961BA6003F11402A179AE
:200E5C00490103F11407525802F5F6627A5003F11401A27952018958C9F800106843244A18
:200E7C00156BA779296803F11C067F01401AA0F51670F0511F49A07903EB40100B78012B6B
:200E9C000EBF0122916A4A7811E003F114017F012A46C9594243A1F5E661A2F51672914229
:200EBC00DCD30821204600F041F801200FE0C272A179DCF80000104A08FB01F10844216859
:200EDC00486007201070204600F034F80020BDE8F28F00BF684E0020784F0020084F0020EC
:200EFC00A01D00205C4D0020804E0020844E0020D8E30000734F00206F4F0020DFF800F00E
:200F1C0035440110DFF800F069860010DFF800F091860010DFF800F099860010DFF800F0BA
:200F3C0049C70010DFF800F0B9860010DFF800F0A9850010DFF800F0498000102DE9F04173
:200F5C000E461C4606AF7068BB88417800783F8800EB012042F62321401A214990464FF096
:200F7C00000525D0401E052814D9801F09D0263830D1072F2CD8C7F10700984298BF83B2AD
:200F9C001EE00E2F24DCC7F10E009842D8BF83B20F3115E0F0680BF0FFFC80B2B84217DBED
:200FBC00C01B9842D8BF83B22380F068C71909E0082F0DD8C7F10800984298BF83B2C91DA8
:200FDC0023807F18404639461A4606F051FF03E0072501E025800A252846BDE8F081C046C2
:040FFC007009002058
:20100000B41200001810000015AB0110FDB301106DC00110FDAE011099B5011000000000F7
:08102000000000002D0000009B
:20102800B01200003C100000B1C00110A9BF011067C0011069B80110000000000000000035
:041048003000000074
:20104C00B012000060100000BDC00110CDB30110D9BD01106DB3011000000000000000005B
:04106C00310000004F
:20107000000000007814002004000000000000000000000020000000E8C90110300000009E
:2010900028100000801400200400000000000000000000000C000000D8CA01101800000079
:2010B0004C1000008814002004000000000000000000000024000000F0CA011018000000FD
:2010D00000000000901400200400000000000000000000001000000018CA01102C00000009
:2010F00000100000A0140020040000000000000000000000200000006CCA0110240000006D
:20111000FFFFFFFFA81400200400000000000000000000002800000090CA0110240000002C
:20113000FFFFFFFFB01400200400000000000000000000001400000008CB011018000000AB
:20115000FFFFFFFFB814002004000000000000000000000058000000B4C901103400000079
:20117000FFFFFFFFC01400200400000000000000000000001000000020CB01101800000047
:20119000FFFFFFFFC81400200400000000000000000000001C000000B4CA01102400000074
:2011B000FFFFFFFFD01400200400000000000000000000003800000044CA0110280000009C
:2011D000FFFFFFFFD81400200400000000000000000000005400000078C901103C00000011
:0811F0000200000084E300008E
:0411F80001000000F2
:0411FC0000000E00E1
:0412000000000F00DB
:0412040032000000B4
:0412080001000000E1
:04120C00CC130020DF
:0412100000020000D8
:0412140000000000D6
:0412180001C90110F7
:04121C0000000000CE
:0412200000000000CA
:0412240008000000BE
:0412280000002200A0
:04122C00C8110020C5
:0412300000000000BA
:0412340000000000B6
:0412380008000000AA
:04123C008C130020EF
:0412400000000000AA
:0412440000000000A6
:04124800080000009A
:04124C00000000009E
:04125000000000009A
:041254000000000096
:041258000000000092
:04125C00010000008D
:0412600094120020C4
:041264000600000080
:041268000100000081
:04126C00301100201D
:04127000000000007A
:041274000000000076
:041278000002000070
:04127C00000000006E
:02128000290043
:02128200010069
:02128400250043
:02128600300036
:02128800310033
:02128A002D0035
:02128C0001005F
:01128E00015E
:081290000300000044E300002C
:0812980000000000000000004E
:0412A0000000010049
:0412A4000000030043
:0412A80013C401105A
:0412AC00A9C80000CD
:0412B000B812000070
:0412B400B81200006C
:0412B8000000000032
:0412BC0040140020BA
:0412C0004DCA000013
:0412C4002000000006
:0412C800D0E2000070
:0412CC007CE10000C1
:0412D00029C101101F
:0412D4007FCA0000CD
:0412D8009BCE0000A9
:0412DC00A1C7011095
:0412E000A3C701108F
:0412E4000000000006
:0412E800CBE1000056
:0412EC0014DF00000B
:0412F0002CDF0000EF
:0412F400FCDE00001C
:0212F8000200F2
:0212FA000900E9
:0212FC000100EF
:0212FE000000EE
:0113000001EB
:04130400C9C9000053
:0413080035B20000FA
:04130C0021C00000FC
:0413100049B50000DB
:041314006DB20000B6
:0413180055A70000D5
:04131C00C186000086
:0413200037CC0000C6
:04132400BD9D00006B
:0413280015C70110D4
:04132C0025C70110C0
:20133000BB482DE9F84F0025BA4CB849056094F8E200002800F06581012800F02F81B64E73
:2013500002283CD0032840F05C8151F8250CD4F8B8100029A0F5C060C4F8D400B8BF494291
:201370000028B8BF4042814226DA4FF08057D7F8A4014568B4F8BC0030214FF47F4208235A
:2013900000903046A847D7F8A4014568B4F8C00004214FF4F802122300903046A847D7F860
:2013B000A401B4F8D070456820214FF440620A2330460097A847012584F8D8501CE151F880
:2013D000258C0BF03DFC2F4600B901273946934F38680028FCD0B146012609F10409D9F8D7
:2013F0002CA03E6009B10BF031FCCAF30720C4F8BC000BF025FCAA4600B9B2463B68002BAA
:20141000FCD0D9F800B0BAF1000F3E6001D00BF01DFCCBF38440C4F8C0000BF011FCAA463C
:2014300000B9B2463B68002BFCD0D9F81C90BAF1000F3E6001D00BF009FCC9F38120C4F892
:20145000D000B8F5C061C4F8B81000F09C8094F8D80068B9C4F8D410D4F8C000C4F8C80019
:20147000D4F8BC70C4F8C470D4F8D030C4F8CC30D4F8D400D4F8BC30002854BF02226FF0DA
:20149000010204F1C8010F6800EB40008018421000EB927207EBA2000860D4F8C810C4F8A4
:2014B000C43000291CDD1E293CDDD4F8CC0030B93429B4BF15391E21C4F8C81025E02A29DC
:2014D000BABFD4F8C8000B381E20C4F8C800D4F8C4003F28B4BF401C3F20C4F8C4001FE046
:2014F000D4F8CC00032812D011F10B0FC6BFD4F8C8000B30301CC4F8C800D4F8C40000283F
:20151000C4BF401E051CC4F8C450032508E011F1150FC6BFD4F8C8001530301CC4F8C80085
:20153000C4F8CC504FF08057D7F8A401B4F8C43030214FF47F424568374800930823A8476B
:20155000D7F8A40104214FF400321123456832480096A847B4F8C860D7F8A40104214FF4DD
:20157000F802122345682C480096A847D7F8A40120214FF440620A23B4F8CC6045682648CC
:201590000096A84701E084F8D85040F2FF50404502D8801C40452FD2082030E051F8251C6D
:2015B0001F4F4BF2F5204843060A3868C0F3814001280CD11B4800680068804709F096FB22
:2015D0000BF04AFB3111C010484306EBE03694F8E50030B91448006820F07F40361876085E
:2015F00001E084F8E5501148310C0660012741600F4D8760287808B90B2000E0052084F834
:20161000E40003F0F9FABDE8F88FC0462D400C402C500C40C40D002000A00C4000800C4094
:20163000B43F0050EC010010102009403C600C40B5E200002DE9F84F0C46E00788B00BD5B4
:201650000BF066FA28B100218160AC48006800B1804784F001004EE1A00710D5002006908A
:201670000021049000230290009005910393019101223C200BF0D2FE84F002003BE11D2584
:2016900060079F4E9F4F40F18A800020079083469D498878FF2804BF00200AF03FFF386875
:2016B00090F8A0000BF04CF980463868C07A98F82691022818BF032808F5907A06D106F1CA
:2016D0000D000BF0A7FE08B906F1070B514648460BF09CFE88B33868807A002818BF0128CC
:2016F00004D1314650460BF08DFE04E05246494630460BF083FEFF2834D005FB00F906EB60
:20171000090506225146E81D0BF010F816F8090040F00209E81D079006223868817E01F03E
:20173000010188F8261105F1010A386800F1140108F590700AF0FAFF14E0514648460BF035
:2017500059FE78B15246494630460BF057FEFF2808D006F10D01454348190BF05BFE08B112
:2017700049F0020908F12C004B4601780691418909090591B8F82220079904920122C0884A
:20179000029140080390CDF804B0CDF800A0002098F806100BF042FE84F00400ABE02006C3
:2017B00010D5002006900021049000230290009005910393019101223B200BF02FFE84F0AC
:2017D000800098E0E0043BD5F11D06F10D000BF00DFE38684179012923D1017A012918BF01
:2017F00004291ED1C17A022918BF032919D1817E00F1140230460BF001FEFF2811D0454364
:20181000354405F10D000BF005FE50B9E91D05F10D000BF0EBFD38680622E91D14300AF03D
:2018300085FF3A493A484A6800784FF4805109F059F810B18E2007F0DFF984F480505AE0C7
:20185000A00505D50BF0FCF9324901200860FEE7610504D506F027FA84F480604BE06004E3
:2018700005D5812007F0C8F984F4804043E0A00440D5294D286810B100200AF04FFE274E6E
:201890004FF0FF3028600BF0ADFD3168244D51F8202F684690472348416A826A036B009175
:2018B000019221490291C16A0A68016AADF8101003921978002904BF5868002805D19A68E9
:2018D000002A04BFD868002806D02970596869609868A860D868E86029463568134A2E681B
:2018F00013486B46B0471349086003F0DDFB84F4005000E0002009B0BDE8F08F204F002012
:20191000AC450020104F0020684E0020784E00206E4F0020FC002043044F0020F04E00205E
:20193000684500200012002011CB00002C4D0020F81B0020EC4E00202DE9F84FB34D686869
:2019500084B0019020B905B0BDE8F04F0BF046BD0178DFF8BC82AF4EDFF8BC92DFF8BCA25D
:2019700001291CBF0229042946F2A81741F64C5B05D0402918BF802900F097803DE10BF047
:2019900095F90028FAD00198007804F0B3F80090446814B900200AF0C1FD9AF8010000286B
:2019B0005DD001F035FE0AF0CBFF02900168009801914F6807F01EFE022827D000990A78D7
:2019D000012ADBD1964B19680A7A19F80230337018B90BF0FFFC5844A0602069C17E01F038
:2019F000EF01C1762069C17E41F08001C1762069C17E01F0F00141F00201C1768948B968F8
:201A100041182069C161012100989DE0019886490278802A12D1082333700878012803D0C2
:201A30009AF80110012903DD39690120C87210E0D8F828003A690178D1720AE007203070F4
:201A50000978386901290EBF0122D8F828104A78C2720298817901988AF80210C8E000983B
:201A700000288BD00199009A0078914205D101281CBF00200AF052FD15E0012840F0BD8086
:201A9000674801680A7A19F8020030700BF0A2FC3918A0680BF09AFC18B90BF09BFC584465
:201AB000A0600120A8700098A2E09AF8010000287AD001F0ADFD0AF043FF04462068029083
:201AD00047689AF802000AF03BFF03900BF0F4F810F0070F3DD0A87804F00CF80190416890
:201AF00001980091029907F085FD022831D001990A78012A2AD14A4B19680A7A19F802304E
:201B1000337028B90BF066FC83440098C0F808B000990869C17E01F0EF01C17600980069A3
:201B3000C17E41F08001C17600980069C17E01F0F00141F00201C176009AB968394841184B
:201B50001069C16101210198A97051E000200AF0E5FC0398A04225D0029833490278802A2E
:201B700012D1082333700878012803D09AF80110012903DD39690120C87210E0D8F8280096
:201B90003A690178D1720AE0072030700978386901290EBF0122D8F828104A78C272A079D2
:201BB0008AF80200029823E00BF086F810F0070F29D0A87803F09EFF04462078D4F804808A
:201BD000012820D116490A68107A19F8001031700BF000FC3918D8F808000BF0F7FB20B9D8
:201BF0000BF0F8FB5844C8F808000120A870204605B0BDE8F04F05F0ADBB05B0BDE8F04F55
:201C100000200AF08BBC05B0BDE8F08F641D0020D8E300006F4F0020289A0110684E002097
:201C3000104F0020F0D8FFFF734F00202DE9FE4F0F469C4C0168E16241688068E0609A486E
:201C5000A16080479948E16A0160A168DFF87CB24160E168DFF8708281609549002FA24688
:201C7000C1606AD03D68E8788DF8080028798DF8090002A80BF0A6FBA86808B18D490160F2
:201C9000E86808B18C4901608C4C287820706878BE686070A878B268A0703178A260736847
:201CB000E1702E696360EA6926627968E2620868E06068697B686062A8699E68A062286A98
:201CD00020631EB900200AF029FC00E066617868C06818B900200AF021FC00E0A0617868E3
:201CF000006918B900200AF019FC00E0E0617868406818B900200AF011FC00E020612869D8
:201D10002062F86881680E6806B96E4E6C494FF001094E60C66881F801902EB900200AF012
:201D3000FDFBF868454601E045462E6000685C46FE68A0617068E06106E000200AF0EEFB43
:201D50004FF001095C46454628686149466804F108035A465020B04710B12868806880470E
:201D7000DAF8080080475C4F0026834669467E7058483E7004226061304609F043FC009800
:201D9000B0F5801F0CD020B909F036FF03F0D8FF08E008F02DFF0AF0FBFD0420788001E047
:201DB00009F02AFF4D4FB0462868C7F808808069E660804778604A48468080F80090142026
:201DD0000AF0BEFEFF211422A0620BF056F8E01CFF2102220BF051F814200AF0B1FE4149B1
:201DF00008600868142231460BF047F83046FEF71DF9484609F010F83B480188FF2906D1F9
:201E1000022101807822001D31460BF036F803200BF0D4FA04200BF0CDFA05200BF0C6FA05
:201E300006200BF0BFFA072007F092FF2F4E0820307006F124000BF0B1FA08F01BF906F100
:201E5000360705200A213A460AF093FA38B14046C0F10901401C07F8011B0A28F8DB307890
:201E7000102105F0B9F92F68214909200DF10A0201AB7D68087010204146A847A06ADAF8BB
:201E90000C10E2690A270A309DF80A307F1E00F8013BF9D1921E5846E261884702F050FB59
:201EB000BDE8FE8FD80E002041490010F844002034D400002DBB0000ADC60000001200204F
:201ED00058140020CB9E0000E8140020F4120020B5BF00000DC700007C110020581D002031
:201EF000E0140020981D0020F00F00203C0B0020AC1D00202DE9F84FDFF8B4B20F46054640
:201F1000F80B80F01F81DFF88482B80880F01081A14EDFF888A2B80F80F0BE80B80B80F068
:201F3000AB803809C0F02A8108200AF0A7FE002840F09D8080200AF0A1FE002840F09780E6
:201F5000684605F0B1FE012803D10098002800F08E8000250124E8B20AF064FB48B1837A31
:201F70003BB1847290F9090004FA00F0C0B209F041F86D1C032DEED345464FF0030968682B
:201F900085F8109070300AF04CFF8148002301680360804950F8082C98461A4640F8088C28
:201FB00005F134000AF049FF3068006B80470146AA68A869891A090BC1F1FF3282422CBF28
:201FD00008444FF0FF30A8612E7F1EB1E968B0EBC12F1ED90AF0D2F8414600B12146081C58
:201FF00014D0504640F60901018041464180427B64F303024273027B61F303020273416094
:202010000AF066FD418811F4406FFBD02C774146A9616348016821F0020141F400710160A8
:20203000604941F8049C41F230028A600C6050268E600C604FF4CA628A600C6041F80C4C2D
:2020500044460460022009F0A7F9112005F024F9287818B9686838300AF0FBFE687F18B138
:202070006C77052009F098F92C744F48686107F041FE27F0080781E046467C36366846B12E
:20209000B06830B13069B6F92C10B46800222023A04727F4005771E03446606D01680420B4
:2020B0008847D0B1287CC0B1464608363068A0B106462068006B8047E968801BE860000BB3
:2020D0008842E86002D240184008E86040F6C41181422CBFB0F5FA7FE96051460D310978AC
:2020F000002011F00F0F18BF0120464660B9688C40F60901814207D1AC6928466FF480714E
:2021100000224FF00073A047284906F1340000220AF093FE0220307407F0ECFD6C6900210F
:2021300028464FF080630A46A04727F0005725E004F016F9454605F17406306808B927F0E7
:2021500002071BE00AF073FE59460E6896B1B16A89080FD2B46AB16AA143B1620BF01AF9D9
:20217000B06848B130692246B6F92C10B4680023A04701E00BF00EF927F4804727B15846F1
:2021900039462C300AF06DFEBDE8F88F081500201410044001BF00008C010010301D002054
:2021B000000004600C41044069700000694A0000881500202DE9FC41A0F20137144688468C
:2021D000022F40F232819B4E9C493F1F0F2F04D9143F4CD0BF1E1CD011E0DFE817F0CF00CC
:2021F000C9000D01FA00C100B9002601AF00A700100010009D008F007F00740066002A2810
:2022100080F21381B8F1020F40F00F818849238807E1B8F1010F40F00881F078012800F0D7
:202230000481324620781179107189B9002800F0FC805078012800F0B580042800F0B280B4
:20225000062800F0AF80052800F0AC80BDE8FC812078002840F0E9805078032800F0AF804B
:20227000072800F0AC80052840F0DF80A7E0B8F1010F40F0DA802078012840F0D68006F13F
:20229000EC000AF035FC002840F0CF803446002004F13A0106F068FB002840F0C68004F1BA
:2022B000C8000AF0E2FDBDE8FC81B8F1020F40F0BC8020880A28C0F2B880B0F5486F00F312
:2022D000B4808E1C17E0B8F1020F40F0AE802088B0F5FA7F80F2A9800E460CE0B8F1020FA6
:2022F00040F0A38020880628C0F29F80B0F5486F00F39B803E363080BDE8FC81B8F1020F6A
:2023100040F0938020880628C0F28F80B0F5486F00F38B803C36EEE7B8F1010F40F0858044
:202330002078062880F28180454E0EE0B8F1010F7BD12078042878DA0A3606E0B8F1010FD9
:2023500073D12078082870DA09363070BDE8FC81B8F1010F69D12078042866DA0836F4E706
:20237000B8F1010F61D1207804285EDCF61DECE7B8F1020F59D120880E36BCE7B8F1010F52
:2023900053D13079012850D032462078D178D07069B9002849D05078012803D0042818BF54
:2023B000052842D101200AF0C3FBBDE8FC81207800283AD15078022818BF052835D1107883
:2023D00009F012FB1C490246102002F0A5FDBDE8FC8106F1830500211F22284606F008FD0A
:2023F00021464246284605F049FD44463078B47109F0FAFA002311E006F1640500211F221B
:20241000284606F0F5FC21464246284605F036FD44463078747109F0E7FA012300940949D7
:2024300001950246102002F077FDBDE8FC81C046ADB40000280600209945011068060020C4
:2024500062060020094501102DE9F0418D4C211D2046ADF1300D07F087FF04F12C05002122
:2024700028460AF093FF002640F20530A5600DF12A02ADF81460012529468DF82A50FFF7F3
:2024900099FE40F20630022105AAFFF793FE4FF442702946621CFFF78DFE40F207301421D3
:2024B00004F13802FFF786FE774F10200622A023394602F031FD394610200722A02302F056
:2024D0002BFD394610200822A02302F025FD394610200922A02302F01FFD394610202A464A
:2024F0001E2302F019FD304604908DF82B50674E8DF82C5007468DF82E504FF48162042326
:2025100004A88DF82D7031460090102002F004FD0DF12B004FF480622B46009031461020BD
:2025300002F0FAFC0BA840F202422B4600903146102002F0F1FC0DF12D000090314640F28F
:2025500003422B46102002F0E7FC0DF12E00314640F206422B460090102002F0DDFC4C4902
:2025700010204FF0FF3202F0D7FC4A4910204FF0FF3202F0D1FC1026DFF81C814748484A29
:202590000096132341460190304602F0C5FC04F14C003A46152343490090304602F0BCFCE9
:2025B0004948007880000AF04CFC3F4D0146E96069B14FF6FF7008F087FE3C49304605F1E8
:2025D0004C02009003230191414602F0A5FC04F12400A860364D69782878A9B904F11401AA
:2025F000296209F001FA024605F14403384600903049019305F15403029305F11C0303931F
:20261000AB78304602F088FC2B4904F11C02304602F082FC207809F0E7F92849024630468E
:2026300002F07AFC207809F0DFF925490246304602F072FC08F05CFA04F1640528460AF019
:2026500015F8384684F87A0084F8790084F8780084F87B004FF4E131E167294608F068FAA3
:202670001849122205460DF11600E56005F006FC0DF11601122228460AF08BFB0CB0BDE882
:20269000F081C04608020020ADB40000712B000025BF0000EDC1000085BB00002CE30000AB
:2026B0000C0A0020F1880000740F002034E2000028060020BFA90000C1C30000518801107E
:2026D000318101104CE00000694F00202DE9F04F8246DAF800600C465FEA0208ADF11C0D68
:2026F00014BF00214FF0FF3106F1480083460AF08AF9002818BF0B2040F00D810025884805
:20271000F460B8F1010F057007D06570022008F0F1FF062008F0EEFF01E0012060702078FC
:20273000012840F2AB80801E012868D9801E012833D9801E012800F2DF800AF078FB06900D
:202750004FF0805000F5EE77D0F8DC01A378466A009321782846062908BF0120019001202D
:202770000290A068228AE1686368B047814606980AF010FEB9F1000F40F0C080B8F1000FAA
:2027900002D009F0A3FF02E0504609F0D0F8002800F0A4803868806A2AE00AF048FB0690E0
:2027B0004FF0805000F5EE77D0F8DC01012306680093A168A27860682478AC46042C08BF66
:2027D0009C466346B047814606980AF0E3FDB9F1000F40F09380B8F1000F02D009F076FF34
:2027F00002E0504609F0A3F8002877D03868406880474A49C1F8B0510D6081467EE00AF066
:2028100016FB06904FF0805000F5EE76D0F8DC01E38A87690093E0680190208B0290A078D6
:202830000390207D04900121059122782846022A08BF081CE1786268A368B847814606985B
:202850000AF0A8FDB9F1000F58D1B8F1000F02D009F03CFF02E0504609F069F800283DD022
:202870003068006A80475FEA000947D13068C569A168E28A2369E078A847BEE70AF0D7FA97
:2028900006904FF0805000F5EE76D0F8DC01E38AC7680093E0680190208B0290A078039095
:2028B000207D2946049001200590257805B9014608466268A368E178B847814606980AF036
:2028D00069FDB9F1000F19D1B8F1000F02D009F0FDFE02E0504609F02AF808B914201AE0DF
:2028F0003068406980475FEA000907D1306802692169E078904780E74FF0FF39B8F1010F43
:2029100005D0022008F048FD062008F045FD58460AF09FFA484607B0BDE8F08F50450240A2
:20293000AA1D002010B50B7884074CBF43F0020303F0FD0304064CBF43F0800303F07F0357
:2029500004074CBF43F0080303F0F70384064CBF43F0200303F0DF0310F0AA0F0B7004D05E
:20297000107840F00C00107010BD18B9117801F0F301117010BD2DE9F8430D46002728783E
:20299000022814461E4667D1696808784978DDF8208000EB012080B25FEA08011CBFB0F570
:2029B000285F0B205BD14FF42851401A08D0401E21D0401E2FD0401E25D0401E31D04BE0B2
:2029D000DDF82490E8680AF05AFA80B2A0EB08024A45BCBFA0EB08001FFA80F909EB0800CE
:2029F000162806DAA6F800904A46E86800EB08010DE00D2732E0E868008802213180207038
:202A1000000A60702AE0062030800622E968204609F08CFE22E001203080E868017821705D
:202A30001CE0E868B0B108213180018821700188090A61704188A1704188090AE170818868
:202A500021718188090A6171C188A171C088000AE07103E0378001E0378001273846BDE86B
:202A7000F2832DE9FC470F4600243978022970D1804678680A9E0178DFF8E0A09146427833
:202A900001EB022189B24FF42850091A1D4606D0491E29D0491E4ED0491E39D059E0F868D7
:202AB0000AF0EDF980B2B04204D3A819162803DB0D244FE007244DE0FB682A464946981983
:202AD00009F034FEAD19F868ADB2C5F11602002140190AF0D2F9DAF8000000281CBF0268EA
:202AF000002A37D0002123E08EBB022DE0D199F8000099F80110FA6800EB01201080DAF845
:202B1000000000281CBF0268002A23D001210FE0EEB9062DCCD1F8680622494609F006FE7F
:202B3000DAF8000000281CBF0268002A12D00321404690470EE056B9012DB9D199F8000073
:202B5000002813BF0128F9680870802402E00B2400E001242046BDE8F6870000901D00205A
:202B70007CB5894D144602460026A2F58062182A1AD8DFE812F0FE00F800F100E900E2004E
:202B9000DC00D500D0001900C500BE00B700AE00A3001900190080006F00680054004C00D7
:202BB000420039002C0024002A2880F28580022940F08280218808F071FC0646E1E00129CF
:202BD00040F0DE80002C00F0DB801135A6E0102940F0D680002C00F0D380284650301022C6
:202BF000214609F0A3FDCCE0012940F0C980002C00F0C68029468D1D90E0262940F0C080CC
:202C1000002C00F0BD8005F160002622E8E7012940F0B680002C00F0B3806D1D7EE060298E
:202C300000D13CB9012940F0AB80002C00F0A8800D3573E005F186002146602209F076FD8F
:202C5000012068739DE0012940F09A8020780AF099FB96E0012940F093802078022800F3B9
:202C70008F800C3528702078022814BF301C01200AF084FB85E0072940F08280611C6846EF
:202C9000062209F075FC20786946324604F080FD04460A2C10DA0AF06DFB38B9204602F04D
:202CB000BDFF09F0A1F807F0E5F96AE02A46012002F12C05285564E0022662E001295FD15D
:202CD000A87B21780028A9735BD12078012858D1E9E7012954D12478072C51DB102C4FDC4D
:202CF0000B3537E001294BD124780A2C48DA093530E0012944D12478022C41DA083529E07B
:202D100000293DD10AF036FB10B909F0BAFDC8E701240F351EE0012932D10A35247819E0B1
:202D300001292DD12478022C2ADAED1D12E0102926D12B4603F1400051E7012920D12478CD
:202D5000022C1DDA2D1D05E0012919D12478042C16DCED1C2C7014E0012911D12478022CCE
:202D70000EDAAD1CF6E702290AD120881435288007E0012904D12478022CD8BF6D1CE9DD80
:202D9000182630467CBDC0463C0B00202DE9FE4F05467B48002400680094C00905D37948D6
:202DB000007810B9202008F093FB012D40F0E280DFF80092D9F8DC00012840F0D880022053
:202DD000C9F8DC0009F09AF9012008F081FB5FEA000805D00120C9F8DC0009F09FF9CBE005
:202DF0000AF03BF8A34602906748684DC0F800B0A86A016801208847012804D1584606F052
:202E10002FFC012000906248624FC0F800B03868112009F02DFF00B10124102009F028FFE7
:202E300008B144F002040F2009F022FF08B144F004040B2009F01CFF20B12868564E016BA1
:202E5000308888470A2009F013FF20B12868534E016B308888475248012606602868816910
:202E700044F0200088474F48066009F0FBFE00F001010191400814D2286A81684A488847A2
:202E90008246BAF1040FF7D0BAF1010F04D1286A42684548032190474449086820F0030071
:202EB0000860584600F09AF92B683868986B8047019801280CD0BAF1010F04D1286A426812
:202ED0003948314690473949086840F0030008602F48066028684169204688470B2009F016
:202EF000C7FE20B128682C4BC16A188888470A2009F0BEFE20B12868284BC16A188888473E
:202F1000274806600322C9F8DC20264BC3F800B02868416B204688470128F9D138680420E6
:202F300008F0D6FA0446184806603868144800688009FBD30098012802D1304606F090FB63
:202F500009F084FE082008F0C3FA07460298C9F8DC600AF00BFA1648008806F091F909F0C7
:202F7000DDF857EA040018BF4FF0FF3804E06FF0040801E06FF001084046BDE8FE8FC04684
:202F900014100940AC0E00200C400940B8010010000222432C200940DEDE0000DADE00000C
:202FB00028200860800104430040034024220840B0E20000C40D0020FEB57448744A007850
:202FD000744C754B75490D283CD8DFE800F0DD07070707D5D558D59494B2B2B9146041F2E7
:202FF00004456F494C88AC421FBF4E8BAE424E8EAE4203D11D806B48106074E0022C6A4DBE
:203010001C804FF4A05635D94FF48067E41B1AD0241F012C1DD94FF47F77E41B1BD04FF4DE
:203030004067E41B0FD0A41E012C0CD9241F0AD0641E012C0DD940F2F937E41B012C19D9F5
:20305000241F08D098E0022814BF1E80574D156049E0574DFBE7574803681C7A012C05D1C7
:2030700041F20240488048834886F0E74E804E834E86ECE7002009F051FA832080E04E4850
:203090008178FF2954D0182041434C48146040F204450068841C645A1C80641B012C484BFB
:2030B00072D94FF47F75641B0FD04FF44065641B032C84BF641F012C0BD9A41E012C63D988
:2030D00040F2FD35641B08D103E0801C41F201444452136003F05CFD05E0002009F01EFAC2
:2030F00085200AF03FF903B0BDE8F04035480078012104F071B840F204424888188090427B
:203110001CBF41F2084290423ED041F60402904211D12D4C2D4A25682D4800680023CDE943
:20313000002355F8086F2B4B0222B0472A490880F7BD48881880002009F0F0F985201FE04A
:203150004888188002280DD940F20442801A1BD040F6FC72801A05D0083815D04FF47F727E
:20317000801AE8D1887B801CC2B2B52AA8BF6620887300204880F7BD002009F0CFF98420F1
:20319000BDE8FE400AF0EEB8F7BD00BF6F4F0020204F002003CE0000504F0020CC4C0020F4
:2031B000204A002059550110615A0110B1540110755B0110104F0020684E0020804E0020B0
:2031D000313901106E4F0020F04E002002000080EC4E002045B40000424F00202DE9F84F46
:2031F000DFF804B20746ABF13500DFF8F0810068800880F0E28075480068006880477E49EF
:203210000831D1F8009000254FEA29715FEA995201F101010AD2C0F13E0210F10A0F4FEACC
:20323000E202D8BF08229142B8BF111C684BD3F87C21C2F30462162AA8BF203A1B68C3F3F2
:203250000443162BA8BF203B9A465218162A05DA12F10A0FB8BF6FF0090200E015225D4BEF
:203270005D4E02F01F0141F4F8511980316811F0030F18BF0125C90828BF45F002050FB10D
:2032900045F00405434693F90710411A052904DA9979A94208BF99886FD0DFF844E10F28F6
:2032B000A0F10F0829DB08EB0011A1F1F0084FEA28210091072984BF07210091062988BF0F
:2032D00006215EF821600424774604EB81043C594FEA950CA41BEE0804F0FF0124BFC4F3D5
:2032F000072631446F08AE0824BFC4F3074631446E0828BF01EB146104E000214FEA950CF6
:203310006F080091009C5EF824E05FEA5C060EF0FF0424BFCEF3072634447E0824BFCEF380
:20333000074634446E0828BF04EB1E64009E89B2A8EB06267143803104EB1124AAEB020131
:203350000029D8BF0121342209F0FF074A4391B24FF6FF727943B1FBF4F18A4238BF111C63
:20337000802889B2998005DA10F1800FB8BF6FF07F0000E07F20D8719D711A4800681F2995
:2033900018604FF0000008D340F2FF128A4206D24908401C8A42FBD301E01F219980134FC1
:2033B0000F39090940EAC10047EA0001CBF8FB1F0026CBF8FF6FBDE8F88F0D490D4F4346EB
:2033D00008200F609B1D1870BDE8F88FEC0100103C1100506E62084024220840801D0020DD
:2033F0009C130050082009403500094000E7A48030100940FDFDA400AC3F00502DE9F04F0D
:20341000044674488E46016894461F46BEF1000FADF1440D4DD0BCF1000F4AD09EF80020C4
:2034300001209040014244D0BCF80000B0F5C15F32D1DCF81400DCF81860674BDCF81C5092
:20345000DFF898A10E904FF003080DF134090F9618681095C0F3036B59F8046FCEB10021DA
:20347000351F05200B4655F8042FB2F1FF3F10D0924506D0401E01F1040103F10103F2D174
:2034900007E0052B05DA705820F4702040EA0B407050B8F10108DFD1C4F804E0C4F808C0FF
:2034B00009F0C5FC4E4D8046287820B1404609F071FF00208AE002F0F3F94A49086840F0E6
:2034D0000200086007A809F00BFB002605F1AC0007AA4549099607F045FC444905F1E00083
:2034F00007AA07F03FFC07A809F0CAFAFF20192107AB3F4A089005F1340007F0B9FB3D4AE5
:2035100005F150001A2107AB07F0B2FB3A49324605F18800134606F0AFFE384A05F12000B7
:203530000421334608F0D4FB0E2003F0CDFF05F1740009F0DDF905F16C0009F0D9F9072399
:2035500085F878312E742E77AE616E772C48AE60052268612B49EA602B780E70581C28709D
:20357000404609F017FFB1461FB9684609F0CAF96F46386801212060388A6174608278681D
:2035900010B940F6C4100E46E06026741E48A0616061F86800B1A061B86800B160617822B4
:2035B000494604F1200005F023FC04F13800494608F09EFA0BA809F0D3FB14490D9404F18A
:2035D00070004A460BAB06F057FE204611B0BDE8F08FC046D4210840541300500200F84457
:2035F00008150020002009404DC600004D6D000001BF00008D8B00006DC1000001A500009C
:2036100069700000A41D00204F830000E5CD00002DE9FE4FDFF8F48198F8011011B9002022
:2036300008F07CFF09F0D6FE07464FF0000907F6C4170026764D774C11E0304609F080F948
:20365000417951B12968827901F8092009F101015FFA81F9394609F081FE761CF6B2207858
:203670008642EADB98F80100814505D0002008F055FF822009F076FE98F80100012840F01C
:20369000A680002601E0761CF6B22078864280F29880304609F054F9074678790028F2D0E5
:2036B0002868B979027891421CBF002008F036FFB87984E02868C05D09F042F9006842683B
:2036D000DAF808109068814204BF34467F1C00F08C808EE0296808780123F6B24FF4C072A1
:2036F00010E0D8F8047007F5AD7CCF5C02FB07F43CF804E002FB00F43CF80440A64538BFDB
:2037100038465B1CB342ECDB06464FF6FF7009F021FE8246F0B209F013F94FEA5A01006865
:20373000446840F6C410414301F5A06000270091019015E0F0B209F003F901680A78802ADF
:2037500003D1DBF81030009A5A610978402906D131498079096801EB40110198C8617F1CDE
:203770004F4550DA2868C05D0246F1B29142F6D04FF4C071D8F804304A43991803F5AD737C
:20379000C9899A5A4B08934202D2891A8945E6DA09F0D6F80068D0F804B0A268DBF8081006
:2037B0004FEA5A0040F6C413A1F6C41103FB002009F00CFE0028BDD02868C05DC0B2BDE853
:2037D000FE8F002008F0AAFE822009F0CBFD98F80110286809F0BAFD2868007809F0B0F89F
:2037F00000240168D1F804A00127661C4F45FFF661AFE4B2002C1CBFF0B200287FF46AAF89
:203810002868067881E73046D8E700BF684E0020004F00207B4F0020844E00202DE9FE4FAA
:203830000E468246307AC10693461C464FF000090CD5584609F086FD030000F0E9800A22E5
:203850003146504698475FEA00094DD13078DDF838800D9D0C9F02281AD170680178407854
:2038700001EB002189B24FF42052891A012910D9891E3AD0491E14D0FD397BD0491E00F0B1
:203890008280491E6ED0491E74D0491E00F09680ACE0002D2AD1F0680178398002784168F8
:2038B00088E0002D22D101203880F0680178217000217089401C80B209F040FD398860B185
:2038D0000278921C51183980418961704189090AA17002784168E01C6DE0091D3980042294
:2038F0000021601C09F0C9FA94E0002D67D1F0680588042139802570290A617028460DF1BE
:20391000020109F01BFD5FEA000821D0D8F80C50BDF802204FF6FF766B46314609F00AFD5C
:2039300050B998F80030D8F804203C48022109F0FDFC08B9ADF80060287802280AD16968E5
:203950000222201D08F0F2FE3888801C388001E0ADF80050BDF80000A070BDF80000000AA0
:20397000E07057E0002D2AD1F0680168504609F076F802E01DBBF0680088022139802070C4
:20399000000A607046E0F06809F079FA80B2A842B8BF4FF007093DDB854208BF002205D0D4
:2039B00008EB05028242B4BF4246421B3A8092B2F0684119204608F0B9FE2BE015B14FF00C
:2039D0000B0927E0F0680721398001782170417861704188A1704188090AE17001792171DC
:2039F000C1886171C088000AA07113E0584609F099FC5FEA00090BD00F980290CDF804806B
:203A100000953B46224631465046C847814601E04FF00E094846BDE8FE8F00BF8EE0000011
:203A3000F8B57E4F04463868C16E0025002940F0F180102009F084F839680028C86600F068
:203A5000E7808E6E1022214608F070FE39680878002840F08E80CA6ED6F8980012F80CCFEA
:203A700000F001030CF0010C634518BF0023400843EA4000C6F89800C0F34003D2F800C00C
:203A9000CCF3400C634506BF430803F00103002320F0020040EA4300C6F89800C0F380032E
:203AB000D2F800C0CCF3800C634506BF830803F00103002320F0040040EA8300C6F89800F8
:203AD000C0F3C003D2F800C0CCF3C00C634506BFC30803F00103002320F0080040EAC300F4
:203AF000C6F89800C0F30023D2F800C0CCF3002C634506BF030A03F00103002320F480707D
:203B100040EA0320C6F89800C0F34023D2F800C0CCF3402C634506BF430A03F00103002353
:203B300020F4007040EA4320C6F89800C0F38023D2F800C0CCF3802C634506BF830A03F0D6
:203B50000103002320F4806040EA8320C6F89800C0F3C0231268C2F3C022934206BFC20A0A
:203B700002F00102002220F4006040EAC220C6F898008A6E92F89500030718D5C86E436859
:203B9000C3F3C00098B1C87840F00800C870D6F8981023480140C6F898103868C06EC16827
:203BB00021F48071C16049084900C16003E092F8330001282AD0607800281CBF7178002963
:203BD00008D13968CA78130708D5002804BF7078002803D03A68052111711CE06068C0F393
:203BF000800040B996F8950010F0040002D10120087110E00AD00878002819BF307821781D
:203C10003178207809F08AFB054604E0182502E0132500E011252846F2BD00BF304F0020BE
:203C3000FEFEFFFF2DE9F0410446764DA178A869ADF1180D891F00F0DE80C91E00F0C98023
:203C5000491E5FD0491E48D0C91E3CD0481E40F0D580287A697AB8B96878002831D0A0883A
:203C700009F058FB071C00F0C980A07A40080FD3787968B1E168890A0AD2B91D01AA03F012
:203C900087FD0A2804D10321A08809F03FFBB5E0287B022802D1A07A0009F4D3A0887979D1
:203CB00004F1080201F070F8A869002800F0A6804368002B00F0A28000210A46A0889847ED
:203CD0009CE00521E0E7002800F098804368002B00F0948062780221F0E708F021FF00284D
:203CF00000F08C80A86950B1076847B1206900906189227B637BE01C3C46A0477EE0608915
:203D10000121C2E767784FF00008002F52D1A17949084FD3EF69002F4CD101A841460E22BF
:203D300009F0ABF8A08809F0F5FA071C66D0606940B97879B91D06228DF80A0001A808F08D
:203D5000F5FC19E06669307C062206F111018DF80A0001A808F0EAFC07F10C00B91D0622A5
:203D700008F0E4FCB81D062206F1110108F0DEFC307C40F002007871A1799DF81120C1F328
:203D9000800010438DF81100080905D39DF8110040F008008DF8110001A8214600F024F930
:203DB00028B92878022103F017FA404627E0A8694FF0150810B3436803B3A0886278012109
:203DD0009847B8F1000F19D0A86943680321424674E7E078211D002203F0DAFC0A280DDAF6
:203DF000410001EB800004F10C0225300421C0B202F03AFA02E0A08806F08EFA012006B092
:203E1000BDE8F0813C0B00202DE9F04F754F1E46ADF1340D01914FEA960902923D68009086
:203E3000710809F1020221F0010105EB8200091D0390901805EB80000490501805EB800336
:203E50008018059305EB8000079026F0030000F1080802EB080005EB80034018089380180E
:203E700005EB80000990C6F39C008000083002EB4000411805EB800305EB810B0A93891869
:203E9000831805EB8104404405EB8303C6F3990105EB80008900069038680B930A010021BC
:203EB000803204F0A5FF4849DFF820A109682846AAF1880290470746B94518BF6FF0010022
:203ED0007ED128465546394605F1680290470198314608F003FA002818BF012070D10298C4
:203EF000314608F0FBF9002818BF022068D103980199A84704980299A8470098816805988D
:203F1000A847334B0399059A20469946C847012802D1BD0066590EB1032051E02046002183
:203F3000424604F065FF0499059A2046C847012801D166590EB1042042E0274B254D07989E
:203F500003991E462A46B047089804992A46B047079909980A46B0470A980999079AB047E2
:203F70001E4D0B9807992A46B04720460021282204F03EFF1A4B0A990B9A20469946C84719
:203F9000203520462A460146C847089958460A46B04706980021424604F02AFFFDB2584659
:203FB000002D0CBF0122FAB20021635C455CAB4218BF052004D1491C521EC9B2F5D10020B5
:203FD0000DB0BDE8F08FC0468C4F0020B9DB0010C9DE001028130020F9E00010D0DF0000A1
:203FF000C9E60010884F00202DE9FF478146714CDFF8BCA1E069884600284CD1B9F1000FD2
:2040100000F09480B8F1000F00F09080484607F009FE05460A2D23DAD8F814702574002FAD
:2040300037D0680010216A4600EB85002330C0B208F09FF990B950460778FF2110226846FD
:2040500008F0BFFA50B93FB999F80600494600F0010009F057F901E00120A074E0691AE0E5
:2040700004F1E6070A2600253846FF21062208F0A8FA68B9761E07F10E0705F10105F3D117
:20409000607C002804BF0A2020744FD094F836502574E06900E0257C0A2D47DA002835D171
:2040B00068000E214A4600EB85002030C0B202F0DBF8207C06F08EFA6846FF21102208F0C0
:2040D000DCFE207C10216A467030C0B202F0CCF8217C0E220801A0EB410000194946E63051
:2040F00008F024FBD8F814206AB15046007840B9107C02F11101002300F0010009F0FEF8DF
:2041100001E00120A074C4F81C804CE08268002A3ED10269002A2FD142690ABBC2683AB9B0
:20413000A07B08B107F046FB08F014F901203BE06800102100EB85002430C0B202F094F8D5
:20415000E769217CFA68480000EB8100103225300421C0B202F088F8E1690020C86022E018
:204170006800102100EB85002330C0B202F07CF8E1690020486116E068001C2100EB8500DD
:204190002230C0B202F070F8E169002008610AE068001C2100EB85002130C0B202F064F80E
:2041B000E1690020886000200090BDE8FF87C0465A4F00203C0B00202DE9F043664C6268C7
:2041D0000546880FADF1140DC0F0C2805068406808B1804762685168886808B9C86868B1DF
:2041F00008F09AFB5168886810B1804760684168C86800B18047594807F056FD584808F055
:2042100067FC584940F60A0CA1F800C0002048800A7B60F303020A7348604A7B4FF00109ED
:2042300069F303024A73AB686E7C58801A88A2F60202CAB141F21E07D21B15D041F6E67704
:20425000D21B012A20D85A7E012E60F382025A7606D01A8B22F47C7242F434721A8313E0A5
:204270001A8B60F30912F9E75A7C012E60F382025A7405D01A8A22F47C7242F4347202E056
:204290001A8A60F309121A82D5F8088068746246464600E03E46776817B13B889A42F9D187
:2042B0007160727B60F303027273E76E47B1FA681288ACF1070393421AD05B1C934217D011
:2042D0002F8CB7B1686205F12002508095F82C3060F3030385F82C3095F82D3069F3030392
:2042F00085F82D304A604A7B60F303024A7300E0A0601D4801688768C56800911022694614
:20431000406B019720F0784040F0805003901748029503F0B3FD08F0FFFA15486061607F68
:2043300068B91448006801684846884701280CD0707B69F3030070730F4F676105E006F08F
:20435000B7FB0028FBD008F080FD404608F0C0FB05B0BDE8F083C0460815002001000706DC
:2043700001010E04301D00204C13005018000021051F0000E0010010259F000066480178C4
:20439000002900D170472DE9F843491E032984B004D9891F012940F2BC80B4E05F4CDFF811
:2043B00080912168DFF87C8108685F4E00F10805062205F1080102A808F0B8F90622A91CFD
:2043D000684608F0B3F92878C1091D2700F00F02032AC0F3801537D16079C0F38000814280
:2043F0001ED12169062202A807F028FF00280AD06946284609F00AF8002804D03146684609
:2044100009F000F8FF2879D04743D8F80000807AF519002818BF02280AD0012818BF03289B
:204430006CD1F25D691C484608F064FF102865D06B46EA1D2946484608F058FF062269462A
:20445000E81D08F073F959E000F00F00052860D16079C0F38000814250D12169062202A801
:2044700007F0ECFE002849D06946284608F0CEFF002843D03146684608F0C4FFFF283DD0D9
:204490004743D8F80000807AF519002818BF01280AD0022818BF032830D1F25D691C484619
:2044B00008F028FF102829D040F2024006F078FC6B46EA1D2946484608F018FF0622694623
:2044D000E81D08F033F9D8F80010F05D88760622D8F80000691C143008F028F91348144AE5
:2044F00041F20441418041834186124801801249124808600121107802F06EFE21680A68ED
:204510000020107105E0002008F008F8862008F029FF05B0BDE8F0836F4F0020F44B00201D
:20453000CC470020104F0020AC450020204A00206E4F0020504F0020204F00205955011034
:204550002DE9FE4F664D654C664F2868626A066904F1200339460120B04710B1286880681C
:204570008047DFF89481DFF8809107F029FC5FEA000B03D003F0C2FF4FF0FF3B002637E0E3
:204590000098616910F8062CA0F10C07032A02D171B388472CE0A06A9DF805C00A213246C5
:2045B000401E10F8013F9C4506D0491E02F10102F7D14FF0FF0A01E05FFA82FA2868BAF130
:2045D000FF0F00F1080011D0387906F0D7FDB979012904D0022904BF0099887001E000993F
:2045F00008700099504607F049FE01E0006880472868C3690DF105016A4601A89847002896
:20461000BED0D9F800007700C35B23B9761CF6B20A2EF8DB22E00A2E20DAD8F808008047A2
:20463000D9F80010002231F807A0CA53D8F80C1088472E4850F82620667051463046904701
:204650000646FF206070D8F808008047D9F800107A5A16437E52D8F80C10884707F0B0FB35
:204670000746BB451AD0D8F8080007B9204FE169B94238BF0F1C804782462868016A206A71
:204690008847626A286817491A4B521C6262C6683846B047D8F80C1050468847E768296814
:2046B000A06814318FB9D9F800000A270026835B33B10969A06888472968D9F8000014317B
:2046D0007F1E06F10206F2D103E0096988472968143109684FF0FF30884746E7F412002070
:2046F000E8140020C5B10000981D002004E100008EC2F52814130020D80E00202DE9F04F4F
:20471000ADF1240D079001F0CBF86048007807F0CBFB5F4D0024012806D90C3804D0401E44
:204730000ED0401E09D006E007F058FF022804BF01210C1C06D0696805E005211F2401E013
:20475000032107246960534A1068C0F38150012806D152F80C0C0127020E07FA02F00443C4
:2047700008F0AEF9524AFF234018401E471C28607F1E02F8013BFBD1079A1268002702F058
:20479000FF03FE2B20D0DDF81CC096463B4601260EF0FF02FF2A10D0904205D3914203D859
:2047B00006FA02F2144201D002206CE017430EF0FF02DFF8FCE00EF802305CF804EF5B1C5E
:2047D0000EF0FF02FE2AE5D1092002F07DFE07980121A86005F1280007F08AF905F1980661
:2047F000A8464FF0010A4FF0040B0025A9460AFA05F0044216D1074204BF05F0FF0141F4B3
:20481000C04104D02A480799405D51F82010224802F050F9E8B24FF0FF3107F01DFEC6F80D
:20483000009001E0C6F800B0D8F800006D1C361D8542DCD904A808F023F9184C184A207843
:20485000102104AB059008F10C0006F011FA684608F046F9CDF80C906A4660681149029023
:2048700008F1640006F07EFA0F4951F80D0C20F4F85040F4005041F80D0C0C4FC1F8FFAFAF
:204890004846C7F800A009B0BDE8F08FAB1D0020B00C0020B43F0050007FC7676CE300003B
:2048B00085C4000081AA00000D30094008000940F40C00202DE9F04F0746ADF1140D039386
:2048D000002F02920E9801910F9C049000F0B680081C00F0B380101C00F0B080181C00F0B1
:2048F000AD800498002800F0A980002C00F0AB80206A002800F0A280564D666A281D006873
:20491000002E00F09B80A16A08F0ECFC40B2002808BF6FF0020700F08D8084F82C002078DD
:20493000618800EB80000918143188B2216A88474749086030B92846406808F0CFFC4FF020
:20495000FF3777E08B46628823786088DBF8001025789E1800EB010A701800F1040805EBDB
:20497000450002EB4306851876186D18C01805F10C098018401800F11005204605F076FE54
:204990002078C01C8010CAF800002078C01C8010C8F8000020780836C01C80103060207813
:2049B000C01C8010C9F800002078C01C80102860227839460AF1040003F060FA2278019995
:2049D00008F1040003F05AFA22780299301D03F055FA2378204641463246FFF715FA071C97
:2049F00012D100955046414632464B4608F072FC47B22278039809F1040103F03FFA2278B0
:204A10000498291D03F03AFA21786288DBF8000001EB81015218002104F0EAF9616ADBF8B9
:204A3000000088470B48406808F058FCF8B2992808BF002784F82C70384606E01CB16FF04F
:204A5000010084F82C006FF0010005B0BDE8F08F884F0020201300202DE9F84F644C654F59
:204A7000103CE06F04F16C0500283BD02869806907F0C0FD296928312E690A6802430A6021
:204A900006F1200191E80003002343EA090340EA080281E80C00810806D218B328694FF46D
:204AB0008041C4F8800019E0286982693E46A6F1100000F10803196822F002029143196069
:204AD0002969CA69066826EA02010160296905F1080007F0D1FA00200221286104F1AC0060
:204AF00008F0BFF900264FF00108B9464FF0020B4FF0110AF0B207F095FD071C37D0B87A5C
:204B1000012834D197F90900A9F11401113008FA00F0C2430A604A681043486097F9090027
:204B300008FA00F0C0B207F0C1FC07F11000002106F0C8FF0146812909D1B86918B1002191
:204B500006F0C0FF0146812908BF87F80AB081290DD097F9090094F879110AFA00F008432A
:204B700084F87901002104F1E00008F07AF9761C032EBFD3E16F28680029074636D180B3E9
:204B9000684605F089F830B1009820B1082006F031FABDE8F88F082007F088FC284607F01A
:204BB0005AFAE06707F1180090E806004846CA43A0F10C04226023681942FBD108380268A2
:204BD00011430160F969C94340F80C1CF96950F8082C114340F8081CF86807F065F8BDE85B
:204BF000F88F04F1AC00594608F03BF9BDE8F88F181500201C1004402DE9F843614C5A4D24
:204C10005A4EDFF870815E4F94F8E4100846401E0B2864D8DFE800F07B2C43062343062396
:204C300043067664042907D001220A2945F8212C14BF0220032004E0202045F8210C012096
:204C5000024684F8E200002045F8390C0827C5F8FF7FC5F8F37F45F8392CBDE8F883052973
:204C700014BF09200620002784F8E400376075E094F8E170383D0120002FC5F81B0004BF52
:204C90000620002102D00021F160032084F8E400032045F8010C3160306880085ED294F81C
:204CB000E4103348012703290ED00068456800216022052300914046A84794F8E4000628BF
:204CD00014BF0A200720CFE700684568002160220523022000904046A8470420C4E7FEE72F
:204CF0002548264F0026012506600E203D6002F0D3FA022006F050FB84F8E45084F8E360B4
:204D1000BDE8F883002038600C25786024E04FF08059D9F8A0010168202088472C3D0F2004
:204D300045F8010C41F61D56C5F80360D9F8A401466800214FF4C072072302254046009529
:204D5000B047D9F8A401C66800214FF4C07207234046B0470120386084F8E45004F1780095
:204D700008F05DF8BDE8F88339400C4038600C40A401001000A00C402C500C4004800C40D4
:204D900034600C40C40D00202DE9F04F88468246ADF1AC0D299208F0BDFA5C4CE67894F8F4
:204DB0000BB0A57A94F80C90071C00F0AB8068460021A42208F061F82801279A55498DF8B0
:204DD000046005F0030300F4807605F00405ADF800A0B9F1020F01EA020143EA01024C4BC7
:204DF0008DF8A0B046EA020100F4C06603EA010246EA020045EA00054FF00000279508BF69
:204E100001208DF8370008F061FA412809DB207B00280CBF002008209DF8991008438DF821
:204E30009900607B002804BF00208DF8380017D001208DF8380004F1860120220DF139006C
:204E500007F074FC0DF1590004F1A601202207F06DFC0DF1790004F1C601202207F066FC78
:204E7000A07940B18DF8260004F1500110220DF1270007F05BFC66793EB104F16000B91D89
:204E90000622054607F0DAF968B92079002804BF00208DF8050015D08DF8050004F14001D1
:204EB0000DF106000BE08DF805600DF1060005F11601102207F03AFC0DF11600A91D10228D
:204ED00007F034FCE07930B1B8F1000F03D0279941F002012791002100B10121A7789DF882
:204EF0009900002F41EA00018DF899100CBF002004209DF89910084329998DF8990068465A
:204F100008F0E0F92BB0BDE8F08FC0463C0B0020FBF9FFFFFCFEFFFF0FB42DE9F04106AF9B
:204F30008046ADF1280D07F009FF3E1D26F00306361D30F0010001D107F040FCCDF81A6097
:204F50001420ADF816000025CDF80E50FF248DF818407B68CDF81E3008F0B0F9064607F030
:204F7000EDFE30F0010015D007F01EFB4D492A468446062031F80C7F4FB14B681B689E4260
:204F900004D0401E02F10102F4D100E0D4B2604607F01FFC404606F0CBF90146FF2905D072
:204FB000204603220DF11A0304F0C6FC08F086F906F088FBA8460446CDF8008007F0BEFE65
:204FD00030F0010063D00098A04260D041F2883001A906F047FB009D002852D108F06AF9B3
:204FF0000199012746186068019B41464FF00052FBF7BEFD00282BD00DF122000DF12301F3
:2050100002AA04F0BDFDB0B99DF8220003A906F041FB38B9029A07F073FE00281CBF029D91
:20503000474615D10299684606F0F4FC60684FF0005108F03BF90198B0F1FF3FD3D00028F7
:20505000D1D008F037F9301A02D00199814216D207F0D8F9009E07F0A7FA083401463EB1A6
:20507000324652F80C0C40B9206842F80C0C2660084607F0AEFB384603E00246F1E70190ED
:20509000B1E720B92DB1284607F09EFE01E007F095FBDDF81A0000680AB0BDE8F04104B0AD
:2050B0007047C046200F0020F8B5414C414B2568186855F8183F00224FF0FF3198473E4867
:2050D0003E4A416B3E4D88683E4E41791170002708F0E8F83C4808F0E1F808F0DBF83B48A8
:2050F000026800215171A02301680722CB804A720321026811720021036859774FF4C07413
:205110000268D176036883F85C10012102681177036883F85D100021006880F85E100CE0BA
:205130006868F9B2614308444079012804D1F8B207F006FC08F0AAF87F1C3178F8B2884248
:20515000EED308F09FF82248224A0178117005F045FE08F093F82049204A002008700021D8
:20517000117001201E4A10701E4A11701E4A10701B201E4A11701E4A11701E4A11804FF47B
:20519000A4711D4A1080FB201C4A11801C4A1D49108040F648000880FB211B4A11801B4A08
:2051B000108008F067F81A4900200870F2BD00BFF04E0020EC4E0020D8E30000714F00203C
:2051D000684E00207B4F0020CC470020104F00206D4F00207A4F0020734F0020744F0020C3
:2051F000754F0020764F0020774F0020784F0020794F0020524F0020444F0020464F0020F8
:20521000484F00204A4F00204C4F00204E4F00206F4F002053480178042900D870472DE9D2
:20523000F84F891F2FD0491E012900F29080DFF838A19AF80200FF2825D007F081FB834641
:205250000BF16C07786808F011F8804698F80400032818D1D8F80800047814F0030404D14C
:205270007868BDE8F24F07F0FDBF4578032C00F102090BF20F160BD035B1387820B93D21F3
:205290007170012030706AE038480178012966D09BF8940058B32D1FEDB24B462A46214634
:2052B000584607F0DBFF40B93D20707001203070BDE8F24F2E4807F0CDBF2E4801688847EB
:2052D00006469BF80620DAF804104FF4C07042438818002180F839110BF59A7001688079EC
:2052F000490804F0C3FA24490A68304690470020032CC8F8080016D0204841690878820758
:2053100007D5C0074CBF03200020401919F8000000E08120387223469AF802002A464946FB
:2053300007F094FF0AE00F480178082903D04946584606F00FFA484605F072F9786807F024
:2053500091FF41465846BDE8F44F07F07BBF002007F0E4F8BDE8F24F862008F003B8BDE898
:20537000F18F00BF6F4F0020684E0020794F0020AC450020E00E0020E40E0020D8E3000056
:205390002DE9FF4104466668A7680D4607F04FFD3178012903D107F0FDFF00208AE00121A4
:2053B000317007F0F7FF287870706878B07068687060A868B060E868F06028693061287DA8
:2053D0003075687D7075A87DB075A869B061287F3077687F7077A87FB0774FF00008C6F873
:2053F0002080C6F83080454675627563B562B56386F82C5086F82D50786802F065F820469C
:2054100002F0D6FD204602F01FFE60B9386806F065FE786801F040FF07F009FD357007F087
:20543000B9FF2C4645E0684607F02AFB0094387B224A0190B9686B4606F17C0005F018FCB1
:20545000684607F04DFB00941D4938696A46029006F1980005F086FCB07830B906F1CC0098
:20547000294606F045FB17483061707830B906F1E800294606F03CFB1348F060684607F0EB
:205490006FFC01958DF800501049029406F582700A226B4604F0F0FEB969FA6906F13C00D3
:2054B00007F0A8FA0A4A06F168000421234606F00FFC20460090BDE8FF81C0463556000055
:2054D000F1800000C5CD0000BDCD00009DA70000E1CB0000F0B5514C20780D46E90BADF180
:2054F0001C0DC90372D1A80860D2E069216A6A080ED2E80828BF85F0040580F08C8068091A
:2055100004D303F0AFFC85F0100584E0002083E0868861B904F11600414A00904FF6FF7192
:205530000223012007F08AFE0146216221B304A800900027019702230293FF220392E28A21
:2055500030460DF11203FEF769F958B99DF813009DF81220216A12EB002204D04989304615
:2055700005F004FA216AE28A08463B464FF6FF7107F0E0FE01462162A069002918BF85F090
:2055900001051AD168B143685BB1E0698088012100229847A069E7694368B888032100223C
:2055B000984706F0ADFF85F0010534E000200146FEF71AFD18B185F00205012102E00221EC
:2055D00085F00205207801F007FE24E002F04CFF071C1ED038780126B03811D0401E02D08F
:2055F0001F3808D011E0387978B97888F9883A8905F0BCF90AE03846FEF714FB064604E00F
:20561000397907F1080007F015FE16B1384606F025FE85F40045A8B207B0F0BD3C0B00207D
:2056300088E000002DE9F84F8046D8F808603068D8F80450076CDFF830B14764AB6B6A6C19
:20565000286C17F4F06F1946A0EB020934D1F8091ED2780974D3B1B196F821205846801D1D
:20567000845C601E814294BF1C1C641E4046214606F08BF9A86B001BA86361D105F198008C
:20569000012107F0EEFB4046494606F0C1FB57E00029F8D0404606F078F995F82D10A86347
:2056B00011B900284CD101E00020A86305F19800012107F0D6FB43E0F80A20D24FF0000AE7
:2056D000544602E0AB6B5B1EAB6393B14046012106F05BF93068446814F00F04C0F804A0B4
:2056F000F0D0286B401E2863686B401E6863A86BE8B905F19800012107F0B3FB13E03068CE
:2057100044680022202904F00F044260CCBF4FF0200A9A464046514606F037F9CAF12000C7
:205730008145C8BF81464946404606F071FBEC77404604F033F8726A12B140462146904763
:20575000B8090FD3A96A69B10F46404606F034F9A86238B996F820205946895C4046C919B6
:2057700004F052FEBDE8F88F98DF00002DE9FC4705466E68D5F8088037780FB1B76B1FB102
:205790004FF0FF30BDE8FC8731630024F477171C74631BD006F13C0907F049FB824669465D
:2057B000484605F084FA00281ED4504607F0F2FD9DF80000316B0870306B736B7F1E00F192
:2057D0000100306303F101007063E5D17078726B316B0128A1EB0201316303D1F36828465D
:2057F0009847726B144655E0B763504607F0D2FD07F01DFB294D0746287820B9022005F076
:2058100079FF01202870384607F0C4FDD8F80010086B40F400700863D8F80010886B40F4A8
:20583000FA608863707808BB716806F1E807384607F0E9F8B8B1B4633846214607F0E3F81C
:2058500088B107F0F4FA0746287818B1022005F0A3FD2C70384607F09DFD1027716B306B54
:20587000F777401A3063706BBDE8FC8707F0DFFA96F82D1061B1716B51B1B16B41B1B4630A
:2058900007F088FD06F19800012107F0EAFA01E007F080FD2046BDE8FC87C046A21D002028
:2058B0002DE9FF47484C94F8E700002876D13E4E01273C48F57C84F8E770736884F8E650FD
:2058D0000068C4F81031C0F3801084F8E800684607F046FA002504F10C0001956B468DF8D5
:2058F0000050324902952A4604F0C6FC304904F130006B462A4604F0BFFC2E4904F15400E2
:205910006B4681462A4604F0B7FCB16838468847DFF8B0802848327D08F104030078284E6E
:205930001868C0F3815A22B1BAF1030F04D184F8E170BAF1030F17D0BAF1020F14D0BAF128
:20595000010F0ED0022005F0D5FE1C480068016804208847012804D030683221B1FBF0F1C2
:205970000DE005F0B3FA12E0022005F0C3FEBAF1030F0CBF4FF47A7142F210713068B1FB0F
:20599000F0F1484607F049FA484607F048FA40460068C00802D2284605F0ACFE0020009040
:2059B000BDE8FF8714100940A0E20000AF910000D57A0000E1930000AB1D0020E0010010E1
:2059D000941D0020B03F0050C40D00202DE9F84F5FEA00091C46924600917DD0081C7BD080
:2059F000BAF1000F78D0002C7BD0206A002873D03F4D616A281D006800296DD0A16A07F0BD
:205A100071FC40B2002808BF6FF002055FD084F82C002078618800EB400009180C3188B2A7
:205A3000216A88473149AB46086030B9DBF8040007F054FC4FF0FF3549E0884666886588DD
:205A50002178D8F800008F192D183F1806EB41063618204604F00AFE2078C01C8010286015
:205A700020783F1DC01C8010386020780836C01C8010306022784946281D02F0FFF9284686
:205A90003A463346014607F0D1FB45B2227800983B1D194602F0F2F922785046311D02F0C6
:205AB000EDF921786288D8F8000001EB41015218002103F09DF9616AD8F800008847DBF81E
:205AD000040007F00BFCE8B2992808BF002584F82C502846BDE8F88F1CB16FF0010084F832
:205AF0002C006FF00100BDE8F88FC046884F0020201300202DE9F041FF2807461ED107F0ED
:205B1000DBF810F0070F16D0042005F0C7FA08B104200AE0012005F0C1FA08B1012004E076
:205B3000022005F0BBFA20B10220BDE8F04105F0D1BA06F0F3FC0020BDE8F08105F0CAFA6C
:205B50008046012FD8F80450334E04D0022F29D0042F3DD0EFE7022005F0A0FA80B1022082
:205B700005F0B8FA074601207C6805F097FA28B1A0683118A86807F029FC88B13846DBE7C7
:205B9000042005F08BFA28B1042005F0A3FA0746012026E0012005F081FA08B94FF00008BB
:205BB0004046C9E7042005F079FA28B1042005F091FA0746022014E0012005F06FFA28B1DB
:205BD000012005F087FA074602200AE00220E2E7012005F063FA88B1012005F07BFA074656
:205BF00004207C6805F05AFA0028C7D0A0683118A86807F0EBFB0028C0D1D1E7022005F0BF
:205C10004DFA30B1022005F065FA074604207C68E8E70420BFE700BF589EFFFF2DE9F043EC
:205C3000454E0546307CADF14C0DA84209D13078012105F067FC3078022105F063FC06F0D8
:205C50005FFC6C0004EB85040E210FAA04F1200004F120075FFA80F9F8B206F08AFB0028BD
:205C700065D10FA8FF21062206F0ABFC00285ED168461C2207F001F907A8FF21102207F016
:205C9000FCF804F1230010210BAAC0B2804606F070FB90B929480778FF2110220BA806F035
:205CB00090FC50B93FB99DF842000FA900F0010007F028FB01E00120B0740FA8FF210E2280
:205CD00007F0DBF848460E210FAA00F0CDFA06461C216A4604F12100C0B200F0C5FA1C2110
:205CF0006A46064304F12200C0B200F0BDFA10216A460643404600F0B7FA10216A460643F0
:205D100004F12400C0B200F0AFFA04F1250704216A460643F8B200F0A7FA7035102107AA4E
:205D300040EA0604E8B200F09FFA204300E0002013B0BDE8F083C0463C0B00205A4F002088
:205D50002DE9FE4305F0FEF9DFF80C81814608F1020000880027011F8CB26FF00301401802
:205D700080B204285ADBFF254FF6FF7620466946042205F047FCBDF800309E4237D0002B38
:205D900035D0D80BC2032FD19D422DD0381FDDB280B2042815DBB0F5805F12DA00F18852FB
:205DB000126801A90A60BDF804108D4207D0BDF80610401A001F80B20428ECDA01E0012369
:205DD00000E00023BDF802001BBB211A001D8BB282B207F18851184605F014FCBDF802006F
:205DF000C119091D8FB214E0BDF8020011E0BDF8020003466FF30E0363B9011D8C4208DA59
:205E1000002006F08BFB484606F06CFB0020BDE8FE83241A241FA4B2042CA7DA04F0E8FE43
:205E30003FB10C484FF088513A4606F09EFF06F0AFFD484606F056FB4246507800281CBF19
:205E50000020011C03D1C7F58054391DA0B25180BDE8FE8304E001007C1100202DE9FE4309
:205E70000D884A88AA4201D32A0001D1012076E00022ADF80420029200244FF6FF78814652
:205E90000F4627E00294287802283AD1BDF8006001218DF80610B6082878022861D16989AD
:205EB00004F8011B02226889000A04F8010B2046696806F03BFCA41CBDF80400401CADF8B5
:205ED0000400B1B2BDF8040088424AD26D89454547D06D1C00200090002379880022A8B23C
:205EF00007F0ACF905003CD0BDF8040010BB6B4642460521484607F095F90400C2D1112027
:205F10002DE002208DF806001221BDF8000090FBF1F62978102924D1688904F8010B102263
:205F30006889000A04F8010B2046696806F0FEFB1034C1E79DF806000128EAD1ACE701A980
:205F5000484607F06BF948B101AB05221621484607F060F910B1029804F062FB0020BDE8F6
:205F7000FE83BDF804000028E9D10A20F7E770472DE9F0478046D8F80450D8F808709146E0
:205F90000E4606F054FF82463868006B00F480712878002865D0002963D105F5827006F060
:205FB00040FF0024EC772E6250466C6207F0F2F906F03DFF2E4E3378824623B9022005F021
:205FD00099FB01203070504607F0E4F93968086B40F4807008634046494605F0EDFCA86252
:205FF000C0B94046494604F00FFAA878C8B9A96805F1CC0006F007FDE0B1AC621020E8776A
:206010003946284602F0E2FF06F011FF8246307838B322E03968886B40F020008863A8785E
:2060300010B12046BDE8F087A96805F1CC0006F0EAFC10B9686ABDE8F0874046494604F09E
:20605000E3F91020AC623946E877284602F0BEFF06F0EDFE8246307818B1022005F09CF955
:206070003470504607F096F94FF0FF30BDE8F087A31D00202DE9FE4FFCF7E6F93B4C4FF6E5
:20609000FD794FF0000841F2301609F1020A04F1100B6068334A41464FF0FF33FAF768FD11
:2060B0000028F6D0CDF8048002A80DF10A0101AA05F076FA00283DD1BDF808000127102883
:2060D00033D120789DF80A1088422ED1019D288882452AD02878B02827D16878A3691628F3
:2060F0001ED153B91E49204ACDF8009010204346FEF712FFA369C2B292B943F00103A361AA
:20611000276957B1397907F1080007F093F8DBF8000006F059FE84F802802561474604E08E
:20613000297905F1080007F085F8019810B10FB106F04AFEA06807F069F80028A9D1A068D9
:2061500007F060F805462F7A37B905F1090001888E4201D102F0FEFE284605F0CFF8E9E7EA
:20617000D59F00000F0000C025C80000080200202DE9F84F064686B070888946924607F040
:206190003DF8871EBFB2B81EADF812004FF6FF700590DFF8C8B0DFF8C880324D2989B81E59
:2061B00088424BDB5FEA090048D104A80090337B7189308906F10D0207F040F804003DD091
:2061D00060893081BDF81020217A708807F012F85FEA000932D13079BDF81210DBF80030C4
:2061F0000390002201920291CDF80080BDF8102070882146FDF712FB5FEA00091ED16389FD
:20621000B8F80020DBF80010708806F0EFFF5FEA000913D13089059A90421CBF401C308197
:20623000BCD10BE05FEA09003089AAF8000008BF4FF00A09484607B0BDE8F08F28890028CE
:20625000F0D0698890FBF1F028802946708806F0C9FF0028EFD01620EDE700BFE04E002046
:206270003E4F0020FC4C00202DE9FE4F3B4D4FF0000A93460290884685F801A003F0CEFEAF
:20629000071C1BD0B8F1000F08BF544614D0ABF1010946465446384601A9012205F0B2F92C
:2062B0009DF8041019F8010F884205D17F1C761E04F10104BFB2EED1A0454CD06F8808F11A
:2062D00003004FF6FC7440F6FC7104EA0006B819814204DA06F04CFCFFF732FD6F88E41C93
:2062F00046F40040ADF80040BB19ADF80200694601229CB2204603F0A3F8BDF8020069463A
:2063100001226FF3DF30ADF80200204603F098F8B0105946C2B2384603F092F80298694632
:20633000012240F40040ADF80000204603F088F8BDF80000694601226FF3DF30ADF800009B
:20635000204603F07DF8687820B968888019001D688000E082465046BDE8FE8F7C110020FB
:206370002DE9F041394C143C606F676F04F17408002869D00546E86840F603022026531CEF
:2063900002E04068761EF6B260B15EB101888A4218BF8B42F5D129692CC820312CC149C873
:2063B00081E84900B868BA6A0025BD62D0B197F82F0042F00202002300F00700401E09D0CD
:2063D000401E04D0801E08D14FF0805304E04FF0804301E04FF000532A46BE683869B7F9B2
:2063F0002C10B04706F023FD0646B4F98600401C6FF31F30A4F88600404687F82F5005F01D
:206410002AFE304606F0C6FFB4F98400B4F98610884219D1396991F8940080B90F6877B154
:2064300060680068B0F1FF3F0ED001F1700008490968B7FBF1F106F0F8F9BDE8F08181F831
:206450009450082004F0D6FDBDE8F0811C150020941D00202DE9F84F804691460A9DDDF8AB
:206470002CB00C9E0D9C9A46484606F053FFF0B1B8F1000F1BD101795FEA0A724CBF41F067
:20649000200101F0DF01002D08BFBBF1000F03D1002E08BF002C51D041F00401017134B1A8
:2064B0002169816210222146183006F03FF9254F3868002840D085B1D0F8A40028B91C2045
:2064D00006F03EFB3968C1F8A4003868D0F8A40018B11C22294606F029F98EB13968D1F83C
:2064F000A80028B9172006F02BFB3968C1F8A8003868D0F8A80018B11722314606F016F920
:206510008CB13968D1F8AC0028B9142006F018FB3968C1F8AC003868D0F8AC0018B11422E1
:20653000214606F003F95B4652464946404601B0BDE8F04F06F052BEBDE8F18F01F0FB01F7
:206550000171B4E7A44E00202DE9F0410C4616460546984600210622ADF1300D09A802F027
:2065700047FC2846214609AA01F012F905460A2D43DA05F061FC07464346294630463A4618
:2065900002F09AFD68460021142206F076FC6C0004EB850404F1240010216A46C0B205F0B0
:2065B000E8FE88B96846FF21102206F00AF858B9253404AA0421E0B205F0DBFE304607F0A2
:2065D00001016A4606F006FE05F17000102105AAC0B205F0CEFE68B905A805F0ACFE0424F1
:2065F00004AF37F8041F19B1BA78304605F0E6FD641EF6D1284603F0EDFFB8F1040F12D107
:206610000B4A507802280ED1D079002100B10121907808B141F00401107B08B141F0080192
:20663000304606F0D3FD0CB00020BDE8F081C0463C0B00202DE9F8430446994690460E1C35
:2066500044BF0020011C67D406F007FC05468021304605F067F8071C04D097F82F1031F01A
:206670007F0103D1284606F081FE53E097F82F0010F0070F46D10020022107F1200640EA2A
:20669000090941EA080896E8030008EA000019EA010608BF002820D0284606F067FE07F180
:2066B000200003C804F1680604F1680508EA000809EA010986E8000395E80C0007F120060B
:2066D00096E8030007F120059943904385E80300683494E80300BDE8F8831048B96888426F
:2066F00002D0B9682166B86004F1580080E80003284606F03BFE04F138004FF0FF3106F011
:2067100082F9E5E7284606F031FE97F82F0010F0070FFAD102200021BDE8F883199E0000D6
:20673000F8B506F08DFA02F0D1FF06F09BFA054605F00C000C2854D0E80826D205F088FACF
:206750002A4E376804460120014605F0E5FD31686143884219D22649F020B0FBF7F0241A48
:20677000887C18B1C868A04238BF041C214D2146284606F027FD284606F020FD0120FCF721
:2067900005FB284606F016FD2DE0280929D21A4CA4F1200620688168184888470746042FF8
